{
  "_format": "hh-sol-artifact-1",
  "contractName": "AdvancedMemeToken",
  "sourceName": "contracts/AdvancedMemeToken.sol",
  "abi": [
    {
      "inputs": [
        {
          "internalType": "string",
          "name": "name",
          "type": "string"
        },
        {
          "internalType": "string",
          "name": "symbol",
          "type": "string"
        },
        {
          "internalType": "uint256",
          "name": "totalSupply",
          "type": "uint256"
        },
        {
          "internalType": "address",
          "name": "_marketingWallet",
          "type": "address"
        },
        {
          "internalType": "address",
          "name": "_devWallet",
          "type": "address"
        },
        {
          "internalType": "address",
          "name": "_autoLiquidityWallet",
          "type": "address"
        },
        {
          "internalType": "address",
          "name": "_pulsexRouter",
          "type": "address"
        },
        {
          "internalType": "uint256",
          "name": "_buyTax",
          "type": "uint256"
        },
        {
          "internalType": "uint256",
          "name": "_sellTax",
          "type": "uint256"
        },
        {
          "internalType": "uint256",
          "name": "_maxTxPercent",
          "type": "uint256"
        },
        {
          "internalType": "uint256",
          "name": "_maxWalletPercent",
          "type": "uint256"
        }
      ],
      "stateMutability": "nonpayable",
      "type": "constructor"
    },
    {
      "inputs": [
        {
          "internalType": "address",
          "name": "spender",
          "type": "address"
        },
        {
          "internalType": "uint256",
          "name": "allowance",
          "type": "uint256"
        },
        {
          "internalType": "uint256",
          "name": "needed",
          "type": "uint256"
        }
      ],
      "name": "ERC20InsufficientAllowance",
      "type": "error"
    },
    {
      "inputs": [
        {
          "internalType": "address",
          "name": "sender",
          "type": "address"
        },
        {
          "internalType": "uint256",
          "name": "balance",
          "type": "uint256"
        },
        {
          "internalType": "uint256",
          "name": "needed",
          "type": "uint256"
        }
      ],
      "name": "ERC20InsufficientBalance",
      "type": "error"
    },
    {
      "inputs": [
        {
          "internalType": "address",
          "name": "approver",
          "type": "address"
        }
      ],
      "name": "ERC20InvalidApprover",
      "type": "error"
    },
    {
      "inputs": [
        {
          "internalType": "address",
          "name": "receiver",
          "type": "address"
        }
      ],
      "name": "ERC20InvalidReceiver",
      "type": "error"
    },
    {
      "inputs": [
        {
          "internalType": "address",
          "name": "sender",
          "type": "address"
        }
      ],
      "name": "ERC20InvalidSender",
      "type": "error"
    },
    {
      "inputs": [
        {
          "internalType": "address",
          "name": "spender",
          "type": "address"
        }
      ],
      "name": "ERC20InvalidSpender",
      "type": "error"
    },
    {
      "inputs": [],
      "name": "EnforcedPause",
      "type": "error"
    },
    {
      "inputs": [],
      "name": "ExpectedPause",
      "type": "error"
    },
    {
      "inputs": [
        {
          "internalType": "address",
          "name": "owner",
          "type": "address"
        }
      ],
      "name": "OwnableInvalidOwner",
      "type": "error"
    },
    {
      "inputs": [
        {
          "internalType": "address",
          "name": "account",
          "type": "address"
        }
      ],
      "name": "OwnableUnauthorizedAccount",
      "type": "error"
    },
    {
      "inputs": [],
      "name": "ReentrancyGuardReentrantCall",
      "type": "error"
    },
    {
      "anonymous": false,
      "inputs": [
        {
          "indexed": true,
          "internalType": "address",
          "name": "account",
          "type": "address"
        },
        {
          "indexed": false,
          "internalType": "bool",
          "name": "isBlacklisted",
          "type": "bool"
        }
      ],
      "name": "AddressBlacklisted",
      "type": "event"
    },
    {
      "anonymous": false,
      "inputs": [
        {
          "indexed": true,
          "internalType": "address",
          "name": "owner",
          "type": "address"
        },
        {
          "indexed": true,
          "internalType": "address",
          "name": "spender",
          "type": "address"
        },
        {
          "indexed": false,
          "internalType": "uint256",
          "name": "value",
          "type": "uint256"
        }
      ],
      "name": "Approval",
      "type": "event"
    },
    {
      "anonymous": false,
      "inputs": [
        {
          "indexed": true,
          "internalType": "address",
          "name": "account",
          "type": "address"
        },
        {
          "indexed": false,
          "internalType": "bool",
          "name": "isExcluded",
          "type": "bool"
        }
      ],
      "name": "ExcludedFromFees",
      "type": "event"
    },
    {
      "anonymous": false,
      "inputs": [
        {
          "indexed": true,
          "internalType": "address",
          "name": "account",
          "type": "address"
        },
        {
          "indexed": false,
          "internalType": "bool",
          "name": "isExcluded",
          "type": "bool"
        }
      ],
      "name": "ExcludedFromLimits",
      "type": "event"
    },
    {
      "anonymous": false,
      "inputs": [],
      "name": "LimitsRemoved",
      "type": "event"
    },
    {
      "anonymous": false,
      "inputs": [
        {
          "indexed": true,
          "internalType": "address",
          "name": "previousOwner",
          "type": "address"
        },
        {
          "indexed": true,
          "internalType": "address",
          "name": "newOwner",
          "type": "address"
        }
      ],
      "name": "OwnershipTransferred",
      "type": "event"
    },
    {
      "anonymous": false,
      "inputs": [
        {
          "indexed": false,
          "internalType": "address",
          "name": "account",
          "type": "address"
        }
      ],
      "name": "Paused",
      "type": "event"
    },
    {
      "anonymous": false,
      "inputs": [
        {
          "indexed": false,
          "internalType": "uint256",
          "name": "tokensSwapped",
          "type": "uint256"
        },
        {
          "indexed": false,
          "internalType": "uint256",
          "name": "pulsReceived",
          "type": "uint256"
        },
        {
          "indexed": false,
          "internalType": "uint256",
          "name": "tokensIntoLiquidity",
          "type": "uint256"
        }
      ],
      "name": "SwapAndLiquify",
      "type": "event"
    },
    {
      "anonymous": false,
      "inputs": [
        {
          "indexed": false,
          "internalType": "uint256",
          "name": "liquidity",
          "type": "uint256"
        },
        {
          "indexed": false,
          "internalType": "uint256",
          "name": "marketing",
          "type": "uint256"
        },
        {
          "indexed": false,
          "internalType": "uint256",
          "name": "dev",
          "type": "uint256"
        },
        {
          "indexed": false,
          "internalType": "uint256",
          "name": "burn",
          "type": "uint256"
        }
      ],
      "name": "TaxSharesUpdated",
      "type": "event"
    },
    {
      "anonymous": false,
      "inputs": [
        {
          "indexed": false,
          "internalType": "string",
          "name": "taxType",
          "type": "string"
        },
        {
          "indexed": false,
          "internalType": "uint256",
          "name": "newValue",
          "type": "uint256"
        }
      ],
      "name": "TaxUpdated",
      "type": "event"
    },
    {
      "anonymous": false,
      "inputs": [],
      "name": "TradingEnabled",
      "type": "event"
    },
    {
      "anonymous": false,
      "inputs": [
        {
          "indexed": true,
          "internalType": "address",
          "name": "from",
          "type": "address"
        },
        {
          "indexed": true,
          "internalType": "address",
          "name": "to",
          "type": "address"
        },
        {
          "indexed": false,
          "internalType": "uint256",
          "name": "value",
          "type": "uint256"
        }
      ],
      "name": "Transfer",
      "type": "event"
    },
    {
      "anonymous": false,
      "inputs": [
        {
          "indexed": false,
          "internalType": "address",
          "name": "account",
          "type": "address"
        }
      ],
      "name": "Unpaused",
      "type": "event"
    },
    {
      "anonymous": false,
      "inputs": [
        {
          "indexed": false,
          "internalType": "string",
          "name": "walletType",
          "type": "string"
        },
        {
          "indexed": false,
          "internalType": "address",
          "name": "newWallet",
          "type": "address"
        }
      ],
      "name": "WalletUpdated",
      "type": "event"
    },
    {
      "inputs": [
        {
          "internalType": "address",
          "name": "owner",
          "type": "address"
        },
        {
          "internalType": "address",
          "name": "spender",
          "type": "address"
        }
      ],
      "name": "allowance",
      "outputs": [
        {
          "internalType": "uint256",
          "name": "",
          "type": "uint256"
        }
      ],
      "stateMutability": "view",
      "type": "function"
    },
    {
      "inputs": [
        {
          "internalType": "address",
          "name": "spender",
          "type": "address"
        },
        {
          "internalType": "uint256",
          "name": "value",
          "type": "uint256"
        }
      ],
      "name": "approve",
      "outputs": [
        {
          "internalType": "bool",
          "name": "",
          "type": "bool"
        }
      ],
      "stateMutability": "nonpayable",
      "type": "function"
    },
    {
      "inputs": [],
      "name": "autoLiquidityWallet",
      "outputs": [
        {
          "internalType": "address",
          "name": "",
          "type": "address"
        }
      ],
      "stateMutability": "view",
      "type": "function"
    },
    {
      "inputs": [
        {
          "internalType": "address",
          "name": "account",
          "type": "address"
        }
      ],
      "name": "balanceOf",
      "outputs": [
        {
          "internalType": "uint256",
          "name": "",
          "type": "uint256"
        }
      ],
      "stateMutability": "view",
      "type": "function"
    },
    {
      "inputs": [
        {
          "internalType": "uint256",
          "name": "value",
          "type": "uint256"
        }
      ],
      "name": "burn",
      "outputs": [],
      "stateMutability": "nonpayable",
      "type": "function"
    },
    {
      "inputs": [
        {
          "internalType": "address",
          "name": "account",
          "type": "address"
        },
        {
          "internalType": "uint256",
          "name": "value",
          "type": "uint256"
        }
      ],
      "name": "burnFrom",
      "outputs": [],
      "stateMutability": "nonpayable",
      "type": "function"
    },
    {
      "inputs": [],
      "name": "burnShare",
      "outputs": [
        {
          "internalType": "uint256",
          "name": "",
          "type": "uint256"
        }
      ],
      "stateMutability": "view",
      "type": "function"
    },
    {
      "inputs": [],
      "name": "buyTax",
      "outputs": [
        {
          "internalType": "uint256",
          "name": "",
          "type": "uint256"
        }
      ],
      "stateMutability": "view",
      "type": "function"
    },
    {
      "inputs": [],
      "name": "decimals",
      "outputs": [
        {
          "internalType": "uint8",
          "name": "",
          "type": "uint8"
        }
      ],
      "stateMutability": "view",
      "type": "function"
    },
    {
      "inputs": [],
      "name": "devShare",
      "outputs": [
        {
          "internalType": "uint256",
          "name": "",
          "type": "uint256"
        }
      ],
      "stateMutability": "view",
      "type": "function"
    },
    {
      "inputs": [],
      "name": "devWallet",
      "outputs": [
        {
          "internalType": "address",
          "name": "",
          "type": "address"
        }
      ],
      "stateMutability": "view",
      "type": "function"
    },
    {
      "inputs": [],
      "name": "emergencyPause",
      "outputs": [],
      "stateMutability": "nonpayable",
      "type": "function"
    },
    {
      "inputs": [],
      "name": "emergencyUnpause",
      "outputs": [],
      "stateMutability": "nonpayable",
      "type": "function"
    },
    {
      "inputs": [
        {
          "internalType": "address",
          "name": "token",
          "type": "address"
        },
        {
          "internalType": "uint256",
          "name": "amount",
          "type": "uint256"
        }
      ],
      "name": "emergencyWithdraw",
      "outputs": [],
      "stateMutability": "nonpayable",
      "type": "function"
    },
    {
      "inputs": [],
      "name": "enableTrading",
      "outputs": [],
      "stateMutability": "nonpayable",
      "type": "function"
    },
    {
      "inputs": [
        {
          "internalType": "address",
          "name": "account",
          "type": "address"
        },
        {
          "internalType": "bool",
          "name": "excluded",
          "type": "bool"
        }
      ],
      "name": "excludeFromFees",
      "outputs": [],
      "stateMutability": "nonpayable",
      "type": "function"
    },
    {
      "inputs": [
        {
          "internalType": "address",
          "name": "account",
          "type": "address"
        },
        {
          "internalType": "bool",
          "name": "excluded",
          "type": "bool"
        }
      ],
      "name": "excludeFromLimits",
      "outputs": [],
      "stateMutability": "nonpayable",
      "type": "function"
    },
    {
      "inputs": [],
      "name": "getCirculatingSupply",
      "outputs": [
        {
          "internalType": "uint256",
          "name": "",
          "type": "uint256"
        }
      ],
      "stateMutability": "view",
      "type": "function"
    },
    {
      "inputs": [
        {
          "internalType": "address",
          "name": "account",
          "type": "address"
        }
      ],
      "name": "isBlacklisted",
      "outputs": [
        {
          "internalType": "bool",
          "name": "",
          "type": "bool"
        }
      ],
      "stateMutability": "view",
      "type": "function"
    },
    {
      "inputs": [
        {
          "internalType": "address",
          "name": "account",
          "type": "address"
        }
      ],
      "name": "isExcludedFromFees",
      "outputs": [
        {
          "internalType": "bool",
          "name": "",
          "type": "bool"
        }
      ],
      "stateMutability": "view",
      "type": "function"
    },
    {
      "inputs": [
        {
          "internalType": "address",
          "name": "account",
          "type": "address"
        }
      ],
      "name": "isExcludedFromLimits",
      "outputs": [
        {
          "internalType": "bool",
          "name": "",
          "type": "bool"
        }
      ],
      "stateMutability": "view",
      "type": "function"
    },
    {
      "inputs": [],
      "name": "limitsInEffect",
      "outputs": [
        {
          "internalType": "bool",
          "name": "",
          "type": "bool"
        }
      ],
      "stateMutability": "view",
      "type": "function"
    },
    {
      "inputs": [],
      "name": "liquidityShare",
      "outputs": [
        {
          "internalType": "uint256",
          "name": "",
          "type": "uint256"
        }
      ],
      "stateMutability": "view",
      "type": "function"
    },
    {
      "inputs": [],
      "name": "marketingShare",
      "outputs": [
        {
          "internalType": "uint256",
          "name": "",
          "type": "uint256"
        }
      ],
      "stateMutability": "view",
      "type": "function"
    },
    {
      "inputs": [],
      "name": "marketingWallet",
      "outputs": [
        {
          "internalType": "address",
          "name": "",
          "type": "address"
        }
      ],
      "stateMutability": "view",
      "type": "function"
    },
    {
      "inputs": [],
      "name": "maxTxAmount",
      "outputs": [
        {
          "internalType": "uint256",
          "name": "",
          "type": "uint256"
        }
      ],
      "stateMutability": "view",
      "type": "function"
    },
    {
      "inputs": [],
      "name": "maxWalletAmount",
      "outputs": [
        {
          "internalType": "uint256",
          "name": "",
          "type": "uint256"
        }
      ],
      "stateMutability": "view",
      "type": "function"
    },
    {
      "inputs": [],
      "name": "name",
      "outputs": [
        {
          "internalType": "string",
          "name": "",
          "type": "string"
        }
      ],
      "stateMutability": "view",
      "type": "function"
    },
    {
      "inputs": [],
      "name": "owner",
      "outputs": [
        {
          "internalType": "address",
          "name": "",
          "type": "address"
        }
      ],
      "stateMutability": "view",
      "type": "function"
    },
    {
      "inputs": [],
      "name": "paused",
      "outputs": [
        {
          "internalType": "bool",
          "name": "",
          "type": "bool"
        }
      ],
      "stateMutability": "view",
      "type": "function"
    },
    {
      "inputs": [],
      "name": "pulsexPair",
      "outputs": [
        {
          "internalType": "address",
          "name": "",
          "type": "address"
        }
      ],
      "stateMutability": "view",
      "type": "function"
    },
    {
      "inputs": [],
      "name": "pulsexRouter",
      "outputs": [
        {
          "internalType": "address",
          "name": "",
          "type": "address"
        }
      ],
      "stateMutability": "view",
      "type": "function"
    },
    {
      "inputs": [],
      "name": "removeLimits",
      "outputs": [],
      "stateMutability": "nonpayable",
      "type": "function"
    },
    {
      "inputs": [],
      "name": "renounceOwnership",
      "outputs": [],
      "stateMutability": "nonpayable",
      "type": "function"
    },
    {
      "inputs": [],
      "name": "sellTax",
      "outputs": [
        {
          "internalType": "uint256",
          "name": "",
          "type": "uint256"
        }
      ],
      "stateMutability": "view",
      "type": "function"
    },
    {
      "inputs": [
        {
          "internalType": "address",
          "name": "account",
          "type": "address"
        },
        {
          "internalType": "bool",
          "name": "blacklisted",
          "type": "bool"
        }
      ],
      "name": "setBlacklist",
      "outputs": [],
      "stateMutability": "nonpayable",
      "type": "function"
    },
    {
      "inputs": [
        {
          "internalType": "bool",
          "name": "_swapEnabled",
          "type": "bool"
        },
        {
          "internalType": "uint256",
          "name": "_swapTokensAtAmount",
          "type": "uint256"
        }
      ],
      "name": "setSwapSettings",
      "outputs": [],
      "stateMutability": "nonpayable",
      "type": "function"
    },
    {
      "inputs": [
        {
          "internalType": "uint256",
          "name": "_tradeCooldown",
          "type": "uint256"
        }
      ],
      "name": "setTradeCooldown",
      "outputs": [],
      "stateMutability": "nonpayable",
      "type": "function"
    },
    {
      "inputs": [],
      "name": "swapEnabled",
      "outputs": [
        {
          "internalType": "bool",
          "name": "",
          "type": "bool"
        }
      ],
      "stateMutability": "view",
      "type": "function"
    },
    {
      "inputs": [],
      "name": "swapTokensAtAmount",
      "outputs": [
        {
          "internalType": "uint256",
          "name": "",
          "type": "uint256"
        }
      ],
      "stateMutability": "view",
      "type": "function"
    },
    {
      "inputs": [],
      "name": "symbol",
      "outputs": [
        {
          "internalType": "string",
          "name": "",
          "type": "string"
        }
      ],
      "stateMutability": "view",
      "type": "function"
    },
    {
      "inputs": [],
      "name": "totalSupply",
      "outputs": [
        {
          "internalType": "uint256",
          "name": "",
          "type": "uint256"
        }
      ],
      "stateMutability": "view",
      "type": "function"
    },
    {
      "inputs": [],
      "name": "tradeCooldown",
      "outputs": [
        {
          "internalType": "uint256",
          "name": "",
          "type": "uint256"
        }
      ],
      "stateMutability": "view",
      "type": "function"
    },
    {
      "inputs": [],
      "name": "tradingEnabled",
      "outputs": [
        {
          "internalType": "bool",
          "name": "",
          "type": "bool"
        }
      ],
      "stateMutability": "view",
      "type": "function"
    },
    {
      "inputs": [
        {
          "internalType": "address",
          "name": "to",
          "type": "address"
        },
        {
          "internalType": "uint256",
          "name": "value",
          "type": "uint256"
        }
      ],
      "name": "transfer",
      "outputs": [
        {
          "internalType": "bool",
          "name": "",
          "type": "bool"
        }
      ],
      "stateMutability": "nonpayable",
      "type": "function"
    },
    {
      "inputs": [
        {
          "internalType": "address",
          "name": "from",
          "type": "address"
        },
        {
          "internalType": "address",
          "name": "to",
          "type": "address"
        },
        {
          "internalType": "uint256",
          "name": "value",
          "type": "uint256"
        }
      ],
      "name": "transferFrom",
      "outputs": [
        {
          "internalType": "bool",
          "name": "",
          "type": "bool"
        }
      ],
      "stateMutability": "nonpayable",
      "type": "function"
    },
    {
      "inputs": [
        {
          "internalType": "address",
          "name": "newOwner",
          "type": "address"
        }
      ],
      "name": "transferOwnership",
      "outputs": [],
      "stateMutability": "nonpayable",
      "type": "function"
    },
    {
      "inputs": [],
      "name": "transferTax",
      "outputs": [
        {
          "internalType": "uint256",
          "name": "",
          "type": "uint256"
        }
      ],
      "stateMutability": "view",
      "type": "function"
    },
    {
      "inputs": [
        {
          "internalType": "uint256",
          "name": "_liquidityShare",
          "type": "uint256"
        },
        {
          "internalType": "uint256",
          "name": "_marketingShare",
          "type": "uint256"
        },
        {
          "internalType": "uint256",
          "name": "_devShare",
          "type": "uint256"
        },
        {
          "internalType": "uint256",
          "name": "_burnShare",
          "type": "uint256"
        }
      ],
      "name": "updateTaxShares",
      "outputs": [],
      "stateMutability": "nonpayable",
      "type": "function"
    },
    {
      "inputs": [
        {
          "internalType": "uint256",
          "name": "_buyTax",
          "type": "uint256"
        },
        {
          "internalType": "uint256",
          "name": "_sellTax",
          "type": "uint256"
        },
        {
          "internalType": "uint256",
          "name": "_transferTax",
          "type": "uint256"
        }
      ],
      "name": "updateTaxes",
      "outputs": [],
      "stateMutability": "nonpayable",
      "type": "function"
    },
    {
      "inputs": [
        {
          "internalType": "string",
          "name": "walletType",
          "type": "string"
        },
        {
          "internalType": "address",
          "name": "newWallet",
          "type": "address"
        }
      ],
      "name": "updateWallet",
      "outputs": [],
      "stateMutability": "nonpayable",
      "type": "function"
    },
    {
      "stateMutability": "payable",
      "type": "receive"
    }
  ],
  "bytecode": "0x60a06040526009805462ffff001916620101001790556005600a818155600b919091556000600c556028600d819055600e55600f819055601055601e6019553480156200004b57600080fd5b5060405162003724380380620037248339810160408190526200006e9162001009565b338b8b60036200007f838262001185565b5060046200008e828262001185565b5050506001600160a01b038116620000c157604051631e4fbdf760e01b8152600060048201526024015b60405180910390fd5b620000cc816200049a565b5060016006556001600160a01b0388166200012a5760405162461bcd60e51b815260206004820152601f60248201527f4d61726b6574696e672077616c6c65742063616e6e6f74206265207a65726f006044820152606401620000b8565b6001600160a01b038716620001825760405162461bcd60e51b815260206004820152601960248201527f4465762077616c6c65742063616e6e6f74206265207a65726f000000000000006044820152606401620000b8565b6001600160a01b038616620001e65760405162461bcd60e51b8152602060048201526024808201527f4175746f206c69717569646974792077616c6c65742063616e6e6f74206265206044820152637a65726f60e01b6064820152608401620000b8565b6001600160a01b0385166200023e5760405162461bcd60e51b815260206004820152601c60248201527f50756c73655820726f757465722063616e6e6f74206265207a65726f000000006044820152606401620000b8565b6000891180156200025c57506c0c9f2c9cd04674edea400000008911155b620002aa5760405162461bcd60e51b815260206004820152601460248201527f496e76616c696420746f74616c20737570706c790000000000000000000000006044820152606401620000b8565b60198411158015620002bd575060198311155b6200030b5760405162461bcd60e51b815260206004820152601560248201527f5461782063616e6e6f74206578636565642032352500000000000000000000006044820152606401620000b8565b62000317338a620004f4565b601180546001600160a01b03808b166001600160a01b031992831617909255601280548a841690831617905560138054898416908316179055908616608052601480549091169055600a849055600b839055606462000377838b62001267565b62000383919062001287565b600755606462000394828b62001267565b620003a0919062001287565b600855612710620003b38a600562001267565b620003bf919062001287565b601a5550503360008181526015602090815260408083208054600160ff199182168117909255308086528386208054831684179055601180546001600160a01b0390811688528588208054851686179055601280548216895286892080548616871790556013805483168a52878a20805487168817905599895260169097528588208054851686179055918752848720805484168517905554811686528386208054831684179055935484168552828520805482168317905594549092168352909120805490921617905550620012d6975050505050505050565b600580546001600160a01b03838116610100818102610100600160a81b031985161790945560405193909204169182907f8be0079c531659141344cd1fd0a4f28419497f9722a3daafe3b4186f6b6457e090600090a35050565b6001600160a01b038216620005205760405163ec442f0560e01b815260006004820152602401620000b8565b6200052e6000838362000532565b5050565b6001600160a01b038316158015906200055357506001600160a01b03821615155b1562000af15760055460ff1615620005ae5760405162461bcd60e51b815260206004820152601660248201527f546f6b656e207472616e736665727320706175736564000000000000000000006044820152606401620000b8565b60095460ff1680620005d857506001600160a01b03831660009081526015602052604090205460ff165b620006265760405162461bcd60e51b815260206004820152601360248201527f54726164696e67206e6f7420656e61626c6564000000000000000000000000006044820152606401620000b8565b6001600160a01b03831660009081526017602052604090205460ff1615620006915760405162461bcd60e51b815260206004820152601d60248201527f53656e646572206164647265737320697320626c61636b6c69737465640000006044820152606401620000b8565b6001600160a01b03821660009081526017602052604090205460ff1615620006fc5760405162461bcd60e51b815260206004820181905260248201527f526563697069656e74206164647265737320697320626c61636b6c69737465646044820152606401620000b8565b60008111620007605760405162461bcd60e51b815260206004820152602960248201527f5472616e7366657220616d6f756e74206d7573742062652067726561746572206044820152687468616e207a65726f60b81b6064820152608401620000b8565b600954610100900460ff1680156200079157506001600160a01b03831660009081526016602052604090205460ff16155b8015620007b757506001600160a01b03821660009081526016602052604090205460ff16155b15620008c557600754811115620008215760405162461bcd60e51b815260206004820152602760248201527f5472616e7366657220616d6f756e74206578636565647320746865206d6178546044820152661e105b5bdd5b9d60ca1b6064820152608401620000b8565b6014546001600160a01b03838116911614620008c557600854816200085b846001600160a01b031660009081526020819052604090205490565b620008679190620012aa565b1115620008c55760405162461bcd60e51b815260206004820152602560248201527f5472616e7366657220776f756c6420657863656564206d617857616c6c6574416044820152641b5bdd5b9d60da1b6064820152608401620000b8565b6001600160a01b03831660009081526015602052604090205460ff161580156200090857506001600160a01b03821660009081526015602052604090205460ff16155b15620009a3576019546001600160a01b038416600090815260186020526040902054620009369190620012aa565b421015620009875760405162461bcd60e51b815260206004820152601660248201527f4d757374207761697420666f7220636f6f6c646f776e000000000000000000006044820152606401620000b8565b6001600160a01b03831660009081526018602052604090204290555b30600090815260208190526040902054601a5481108015908190620009d0575060095462010000900460ff165b8015620009e05750601b5460ff16155b8015620009fb57506014546001600160a01b03868116911614155b801562000a2157506001600160a01b03851660009081526015602052604090205460ff16155b801562000a4757506001600160a01b03841660009081526015602052604090205460ff16155b1562000a585762000a588262000b03565b601b5460009060ff1615801562000a8857506001600160a01b03861660009081526015602052604090205460ff16155b801562000aae57506001600160a01b03851660009081526015602052604090205460ff16155b9050801562000aed57600062000ac687878762000d4b565b9050801562000aeb5762000adc87308362000dba565b62000ae88186620012c0565b94505b505b5050505b62000afe83838362000dba565b505050565b601b805460ff19166001179055600d5460009060029060649062000b28908562001267565b62000b34919062001287565b62000b40919062001287565b9050600062000b508284620012c0565b905047600062000b618247620012c0565b90506000601054600f54600e546002600d5462000b7f919062001287565b62000b8b9190620012aa565b62000b979190620012aa565b62000ba39190620012aa565b90506000816002600d5462000bb9919062001287565b62000bc5908562001267565b62000bd1919062001287565b9050600082600e548562000be6919062001267565b62000bf2919062001287565b9050600083600f548662000c07919062001267565b62000c13919062001287565b905060008811801562000c265750600083115b1562000c6e5760408051888152602081018590529081018990527f17bbfb9a6069321b6ded73bd96327c9e6b7212a5cd51ff219cd61370acafb5619060600160405180910390a15b811562000cb2576011546040516001600160a01b039091169083156108fc029084906000818181858888f1935050505015801562000cb0573d6000803e3d6000fd5b505b801562000cf6576012546040516001600160a01b039091169082156108fc029083906000818181858888f1935050505015801562000cf4573d6000803e3d6000fd5b505b6010541562000d3657600060646010548b62000d13919062001267565b62000d1f919062001287565b9050801562000d345762000d34308262000eed565b505b5050601b805460ff1916905550505050505050565b60145460009081906001600160a01b039081169085160362000d715750600b5462000d97565b6014546001600160a01b039081169086160362000d925750600a5462000d97565b50600c545b606462000da5828562001267565b62000db1919062001287565b95945050505050565b6001600160a01b03831662000de957806002600082825462000ddd9190620012aa565b9091555062000e5d9050565b6001600160a01b0383166000908152602081905260409020548181101562000e3e5760405163391434e360e21b81526001600160a01b03851660048201526024810182905260448101839052606401620000b8565b6001600160a01b03841660009081526020819052604090209082900390555b6001600160a01b03821662000e7b5760028054829003905562000e9a565b6001600160a01b03821660009081526020819052604090208054820190555b816001600160a01b0316836001600160a01b03167fddf252ad1be2c89b69c2b068fc378daa952ba7f163c4a11628f55a4df523b3ef8360405162000ee091815260200190565b60405180910390a3505050565b6001600160a01b03821662000f1957604051634b637e8f60e11b815260006004820152602401620000b8565b6200052e8260008362000532565b634e487b7160e01b600052604160045260246000fd5b600082601f83011262000f4f57600080fd5b81516001600160401b038082111562000f6c5762000f6c62000f27565b604051601f8301601f19908116603f0116810190828211818310171562000f975762000f9762000f27565b8160405283815260209250868385880101111562000fb457600080fd5b600091505b8382101562000fd8578582018301518183018401529082019062000fb9565b600093810190920192909252949350505050565b80516001600160a01b03811681146200100457600080fd5b919050565b60008060008060008060008060008060006101608c8e0312156200102c57600080fd5b8b516001600160401b038111156200104357600080fd5b620010518e828f0162000f3d565b60208e0151909c5090506001600160401b038111156200107057600080fd5b6200107e8e828f0162000f3d565b9a505060408c015198506200109660608d0162000fec565b9750620010a660808d0162000fec565b9650620010b660a08d0162000fec565b9550620010c660c08d0162000fec565b945060e08c015193506101008c015192506101208c015191506101408c015190509295989b509295989b9093969950565b600181811c908216806200110c57607f821691505b6020821081036200112d57634e487b7160e01b600052602260045260246000fd5b50919050565b601f82111562000afe57600081815260208120601f850160051c810160208610156200115c5750805b601f850160051c820191505b818110156200117d5782815560010162001168565b505050505050565b81516001600160401b03811115620011a157620011a162000f27565b620011b981620011b28454620010f7565b8462001133565b602080601f831160018114620011f15760008415620011d85750858301515b600019600386901b1c1916600185901b1785556200117d565b600085815260208120601f198616915b82811015620012225788860151825594840194600190910190840162001201565b5085821015620012415787850151600019600388901b60f8161c191681555b5050505050600190811b01905550565b634e487b7160e01b600052601160045260246000fd5b808202811582820484141762001281576200128162001251565b92915050565b600082620012a557634e487b7160e01b600052601260045260246000fd5b500490565b8082018082111562001281576200128162001251565b8181038181111562001281576200128162001251565b608051612432620012f260003960006107cb01526124326000f3fe6080604052600436106102e85760003560e01c8063751039fc11610190578063aa4bde28116100dc578063d0e1032611610095578063f2e76c251161006f578063f2e76c25146108bf578063f2fde38b146108df578063fa399981146108ff578063fe575a871461091f57600080fd5b8063d0e1032614610843578063dd62ed3e14610863578063e2f45605146108a957600080fd5b8063aa4bde281461078d578063aed04fae146107a3578063b9b6f9b6146107b9578063c0246668146107ed578063c0a904a21461080d578063cc1776d31461082d57600080fd5b80638c0b5e221161014957806393ee15ca1161012357806393ee15ca1461072257806395ccea671461073857806395d89b4114610758578063a9059cbb1461076d57600080fd5b80638c0b5e22146106c95780638da5cb5b146106df5780638ea5220f1461070257600080fd5b8063751039fc1461062957806375f0a8741461063e578063780b97371461065e57806379cc67901461067e5780638124f7ac1461069e5780638a8c523c146106b457600080fd5b806342966c681161024f5780634fbee193116102085780635cce86cd116101e25780635cce86cd146105855780636ddd1713146105be57806370a08231146105de578063715018a61461061457600080fd5b80634fbee1931461051f57806351858e27146105585780635c975abb1461056d57600080fd5b806342966c681461047b5780634a4e3bd51461049b5780634a62bb65146104b05780634ada218b146104cf5780634c62f093146104e95780634f7041a51461050957600080fd5b8063153b0d1e116102a1578063153b0d1e146103d357806318160ddd146103f557806323b872dd1461040a5780632b112e491461042a5780633049b5801461043f578063313ce5671461045f57600080fd5b806305bf0a54146102f457806306fdde031461031d57806309218ee71461033f578063095ea7b3146103555780630c439f931461038557806315291cd4146103bd57600080fd5b366102ef57005b600080fd5b34801561030057600080fd5b5061030a60105481565b6040519081526020015b60405180910390f35b34801561032957600080fd5b50610332610958565b6040516103149190612073565b34801561034b57600080fd5b5061030a600e5481565b34801561036157600080fd5b506103756103703660046120a9565b6109ea565b6040519015158152602001610314565b34801561039157600080fd5b506013546103a5906001600160a01b031681565b6040516001600160a01b039091168152602001610314565b3480156103c957600080fd5b5061030a600d5481565b3480156103df57600080fd5b506103f36103ee3660046120e1565b610a04565b005b34801561040157600080fd5b5060025461030a565b34801561041657600080fd5b50610375610425366004612118565b610b31565b34801561043657600080fd5b5061030a610b55565b34801561044b57600080fd5b506103f361045a366004612154565b610b93565b34801561046b57600080fd5b5060405160128152602001610314565b34801561048757600080fd5b506103f3610496366004612154565b610bf2565b3480156104a757600080fd5b506103f3610bff565b3480156104bc57600080fd5b5060095461037590610100900460ff1681565b3480156104db57600080fd5b506009546103759060ff1681565b3480156104f557600080fd5b506014546103a5906001600160a01b031681565b34801561051557600080fd5b5061030a600a5481565b34801561052b57600080fd5b5061037561053a36600461216d565b6001600160a01b031660009081526015602052604090205460ff1690565b34801561056457600080fd5b506103f3610c11565b34801561057957600080fd5b5060055460ff16610375565b34801561059157600080fd5b506103756105a036600461216d565b6001600160a01b031660009081526016602052604090205460ff1690565b3480156105ca57600080fd5b506009546103759062010000900460ff1681565b3480156105ea57600080fd5b5061030a6105f936600461216d565b6001600160a01b031660009081526020819052604090205490565b34801561062057600080fd5b506103f3610c21565b34801561063557600080fd5b506103f3610c33565b34801561064a57600080fd5b506011546103a5906001600160a01b031681565b34801561066a57600080fd5b506103f361067936600461219e565b610c71565b34801561068a57600080fd5b506103f36106993660046120a9565b610e84565b3480156106aa57600080fd5b5061030a600c5481565b3480156106c057600080fd5b506103f3610e9d565b3480156106d557600080fd5b5061030a60075481565b3480156106eb57600080fd5b5060055461010090046001600160a01b03166103a5565b34801561070e57600080fd5b506012546103a5906001600160a01b031681565b34801561072e57600080fd5b5061030a60195481565b34801561074457600080fd5b506103f36107533660046120a9565b610f30565b34801561076457600080fd5b5061033261102c565b34801561077957600080fd5b506103756107883660046120a9565b61103b565b34801561079957600080fd5b5061030a60085481565b3480156107af57600080fd5b5061030a600f5481565b3480156107c557600080fd5b506103a57f000000000000000000000000000000000000000000000000000000000000000081565b3480156107f957600080fd5b506103f36108083660046120e1565b611049565b34801561081957600080fd5b506103f36108283660046120e1565b6110a9565b34801561083957600080fd5b5061030a600b5481565b34801561084f57600080fd5b506103f361085e366004612260565b611109565b34801561086f57600080fd5b5061030a61087e36600461227e565b6001600160a01b03918216600090815260016020908152604080832093909416825291909152205490565b3480156108b557600080fd5b5061030a601a5481565b3480156108cb57600080fd5b506103f36108da3660046122a8565b611131565b3480156108eb57600080fd5b506103f36108fa36600461216d565b61129a565b34801561090b57600080fd5b506103f361091a3660046122d4565b6112d5565b34801561092b57600080fd5b5061037561093a36600461216d565b6001600160a01b031660009081526017602052604090205460ff1690565b60606003805461096790612306565b80601f016020809104026020016040519081016040528092919081815260200182805461099390612306565b80156109e05780601f106109b5576101008083540402835291602001916109e0565b820191906000526020600020905b8154815290600101906020018083116109c357829003601f168201915b5050505050905090565b6000336109f88185856113a7565b60019150505b92915050565b610a0c6113b4565b6001600160a01b038216610a675760405162461bcd60e51b815260206004820152601d60248201527f43616e6e6f7420626c61636b6c697374207a65726f206164647265737300000060448201526064015b60405180910390fd5b60055461010090046001600160a01b03166001600160a01b0316826001600160a01b031603610ad15760405162461bcd60e51b815260206004820152601660248201527521b0b73737ba10313630b1b5b634b9ba1037bbb732b960511b6044820152606401610a5e565b6001600160a01b038216600081815260176020908152604091829020805460ff191685151590811790915591519182527f97b7af35c8c05eca90f543eb78b16fdf2664d3e6c9a907286f310647d9813b7191015b60405180910390a25050565b600033610b3f8582856113e7565b610b4a858585611466565b506001949350505050565b600080805260208190527fad3228b676f7d3cd4284a5443f17f1962b36e491b30a40b2405849e597ba5fb554600254610b8e9190612356565b905090565b610b9b6113b4565b61012c811115610bed5760405162461bcd60e51b815260206004820181905260248201527f436f6f6c646f776e2063616e6e6f74206578636565642035206d696e757465736044820152606401610a5e565b601955565b610bfc33826114c5565b50565b610c076113b4565b610c0f6114fb565b565b610c196113b4565b610c0f61154d565b610c296113b4565b610c0f600061158a565b610c3b6113b4565b6009805461ff00191690556040517f7bfa7bacf025baa75e5308bf15bcf2948f406c7ebe3eb1a8bb611862b9d647ef90600090a1565b610c796113b4565b6001600160a01b038116610cc85760405162461bcd60e51b815260206004820152601660248201527543616e6e6f74206265207a65726f206164647265737360501b6044820152606401610a5e565b6040805180820190915260098152686d61726b6574696e6760b81b6020918201528251908301207fb7f2c253418f51fabe1a9a86054f9d5b941190a8d7c8a4275b7e060618e4502501610d3557601180546001600160a01b0319166001600160a01b038316179055610e47565b6040805180820190915260038152623232bb60e91b6020918201528251908301207fb86b8f53f20c7f0df621e37ffe7aa9ab8dbfdae8aea1719f12d99d10c3b333c601610d9c57601280546001600160a01b0319166001600160a01b038316179055610e47565b6040805180820190915260098152686c697175696469747960b81b6020918201528251908301207f4482607322390f9b458d2f1c3e1ac1498798227af905b0a29e379e763535711b01610e0957601380546001600160a01b0319166001600160a01b038316179055610e47565b60405162461bcd60e51b8152602060048201526013602482015272496e76616c69642077616c6c6574207479706560681b6044820152606401610a5e565b7f6ff3a4003b90be84595beb5f6acb9d54f88bd3e6dd4887ca67e53dc9645465ea8282604051610e78929190612369565b60405180910390a15050565b610e8f8233836113e7565b610e9982826114c5565b5050565b610ea56113b4565b60095460ff1615610ef85760405162461bcd60e51b815260206004820152601760248201527f54726164696e6720616c726561647920656e61626c65640000000000000000006044820152606401610a5e565b6009805460ff191660011790556040517f799663458a5ef2936f7fa0c99b3336c69c25890f82974f04e811e5bb359186c790600090a1565b610f386113b4565b6001600160a01b038216610f945760055461010090046001600160a01b03166001600160a01b03166108fc829081150290604051600060405180830381858888f19350505050158015610f8f573d6000803e3d6000fd5b505050565b816001600160a01b031663a9059cbb610fbb6005546001600160a01b036101009091041690565b6040516001600160e01b031960e084901b1681526001600160a01b039091166004820152602481018490526044016020604051808303816000875af1158015611008573d6000803e3d6000fd5b505050506040513d601f19601f82011682018060405250810190610f8f9190612393565b60606004805461096790612306565b6000336109f8818585611466565b6110516113b4565b6001600160a01b038216600081815260156020908152604091829020805460ff191685151590811790915591519182527f3499bfcf9673677ba552f3fe2ea274ec7e6246da31c3c87e115b45a9b0db2efb9101610b25565b6110b16113b4565b6001600160a01b038216600081815260166020908152604091829020805460ff191685151590811790915591519182527f74392251b09500cc108c71712e5e7e0392be9075a74a24f1494551cfa8e068709101610b25565b6111116113b4565b60098054921515620100000262ff00001990931692909217909155601a55565b6111396113b4565b6019831115801561114b575060198211155b8015611158575060198111155b61119c5760405162461bcd60e51b81526020600482015260156024820152745461782063616e6e6f74206578636565642032352560581b6044820152606401610a5e565b600a839055600b829055600c819055604080518181526003818301526262757960e81b60608201526020810185905290517f152025149960395a45119ccb22f7198ae8472a2bf6d8f534661c7f3f5674b76c9181900360800190a160408051818152600481830152631cd95b1b60e21b60608201526020810184905290517f152025149960395a45119ccb22f7198ae8472a2bf6d8f534661c7f3f5674b76c9181900360800190a160408051818152600881830152673a3930b739b332b960c11b60608201526020810183905290517f152025149960395a45119ccb22f7198ae8472a2bf6d8f534661c7f3f5674b76c9181900360800190a1505050565b6112a26113b4565b6001600160a01b0381166112cc57604051631e4fbdf760e01b815260006004820152602401610a5e565b610bfc8161158a565b6112dd6113b4565b80826112e985876123b0565b6112f391906123b0565b6112fd91906123b0565b6064146113455760405162461bcd60e51b8152602060048201526016602482015275536861726573206d75737420657175616c203130302560501b6044820152606401610a5e565b600d849055600e839055600f82905560108190556040805185815260208101859052908101839052606081018290527f1f2ad50d6fa94440f447184b03fdd68d40b8b097c6ed405436bb57d3ac5804949060800160405180910390a150505050565b610f8f83838360016115e4565b6005546001600160a01b03610100909104163314610c0f5760405163118cdaa760e01b8152336004820152602401610a5e565b6001600160a01b03838116600090815260016020908152604080832093861683529290522054600019811015611460578181101561145157604051637dc7a0d960e11b81526001600160a01b03841660048201526024810182905260448101839052606401610a5e565b611460848484840360006115e4565b50505050565b6001600160a01b03831661149057604051634b637e8f60e11b815260006004820152602401610a5e565b6001600160a01b0382166114ba5760405163ec442f0560e01b815260006004820152602401610a5e565b610f8f8383836116b9565b6001600160a01b0382166114ef57604051634b637e8f60e11b815260006004820152602401610a5e565b610e99826000836116b9565b611503611c3b565b6005805460ff191690557f5db9ee0a495bf2e6ff9c91a7834c1ba4fdd244a5e8aa4e537bd38aeae4b073aa335b6040516001600160a01b03909116815260200160405180910390a1565b611555611c5e565b6005805460ff191660011790557f62e78cea01bee320cd4e420270b5ea74000d11b0c9f74754ebdbfc544b05a2586115303390565b600580546001600160a01b03838116610100818102610100600160a81b031985161790945560405193909204169182907f8be0079c531659141344cd1fd0a4f28419497f9722a3daafe3b4186f6b6457e090600090a35050565b6001600160a01b03841661160e5760405163e602df0560e01b815260006004820152602401610a5e565b6001600160a01b03831661163857604051634a1406b160e11b815260006004820152602401610a5e565b6001600160a01b038085166000908152600160209081526040808320938716835292905220829055801561146057826001600160a01b0316846001600160a01b03167f8c5be1e5ebec7d5bd14f71427d1e84f3dd0314c0f7b2291e5b200ac8c7c3b925846040516116ab91815260200190565b60405180910390a350505050565b6001600160a01b038316158015906116d957506001600160a01b03821615155b15611c305760055460ff161561172a5760405162461bcd60e51b8152602060048201526016602482015275151bdad95b881d1c985b9cd9995c9cc81c185d5cd95960521b6044820152606401610a5e565b60095460ff168061175357506001600160a01b03831660009081526015602052604090205460ff165b6117955760405162461bcd60e51b8152602060048201526013602482015272151c98591a5b99c81b9bdd08195b98589b1959606a1b6044820152606401610a5e565b6001600160a01b03831660009081526017602052604090205460ff16156117fe5760405162461bcd60e51b815260206004820152601d60248201527f53656e646572206164647265737320697320626c61636b6c69737465640000006044820152606401610a5e565b6001600160a01b03821660009081526017602052604090205460ff16156118675760405162461bcd60e51b815260206004820181905260248201527f526563697069656e74206164647265737320697320626c61636b6c69737465646044820152606401610a5e565b600081116118c95760405162461bcd60e51b815260206004820152602960248201527f5472616e7366657220616d6f756e74206d7573742062652067726561746572206044820152687468616e207a65726f60b81b6064820152608401610a5e565b600954610100900460ff1680156118f957506001600160a01b03831660009081526016602052604090205460ff16155b801561191e57506001600160a01b03821660009081526016602052604090205460ff16155b15611a23576007548111156119855760405162461bcd60e51b815260206004820152602760248201527f5472616e7366657220616d6f756e74206578636565647320746865206d6178546044820152661e105b5bdd5b9d60ca1b6064820152608401610a5e565b6014546001600160a01b03838116911614611a2357600854816119bd846001600160a01b031660009081526020819052604090205490565b6119c791906123b0565b1115611a235760405162461bcd60e51b815260206004820152602560248201527f5472616e7366657220776f756c6420657863656564206d617857616c6c6574416044820152641b5bdd5b9d60da1b6064820152608401610a5e565b6001600160a01b03831660009081526015602052604090205460ff16158015611a6557506001600160a01b03821660009081526015602052604090205460ff16155b15611af4576019546001600160a01b038416600090815260186020526040902054611a9091906123b0565b421015611ad85760405162461bcd60e51b815260206004820152601660248201527526bab9ba103bb0b4ba103337b91031b7b7b63237bbb760511b6044820152606401610a5e565b6001600160a01b03831660009081526018602052604090204290555b30600090815260208190526040902054601a5481108015908190611b20575060095462010000900460ff165b8015611b2f5750601b5460ff16155b8015611b4957506014546001600160a01b03868116911614155b8015611b6e57506001600160a01b03851660009081526015602052604090205460ff16155b8015611b9357506001600160a01b03841660009081526015602052604090205460ff16155b15611ba157611ba182611c82565b601b5460009060ff16158015611bd057506001600160a01b03861660009081526015602052604090205460ff16155b8015611bf557506001600160a01b03851660009081526015602052604090205460ff16155b90508015611c2c576000611c0a878787611e9c565b90508015611c2a57611c1d873083611f03565b611c278186612356565b94505b505b5050505b610f8f838383611f03565b60055460ff16610c0f57604051638dfc202b60e01b815260040160405180910390fd5b60055460ff1615610c0f5760405163d93c066560e01b815260040160405180910390fd5b601b805460ff19166001179055600d54600090600290606490611ca590856123c3565b611caf91906123da565b611cb991906123da565b90506000611cc78284612356565b9050476000611cd68247612356565b90506000601054600f54600e546002600d54611cf291906123da565b611cfc91906123b0565b611d0691906123b0565b611d1091906123b0565b90506000816002600d54611d2491906123da565b611d2e90856123c3565b611d3891906123da565b9050600082600e5485611d4b91906123c3565b611d5591906123da565b9050600083600f5486611d6891906123c3565b611d7291906123da565b9050600088118015611d845750600083115b15611dcb5760408051888152602081018590529081018990527f17bbfb9a6069321b6ded73bd96327c9e6b7212a5cd51ff219cd61370acafb5619060600160405180910390a15b8115611e0d576011546040516001600160a01b039091169083156108fc029084906000818181858888f19350505050158015611e0b573d6000803e3d6000fd5b505b8015611e4f576012546040516001600160a01b039091169082156108fc029083906000818181858888f19350505050158015611e4d573d6000803e3d6000fd5b505b60105415611e8757600060646010548b611e6991906123c3565b611e7391906123da565b90508015611e8557611e8530826114c5565b505b5050601b805460ff1916905550505050505050565b60145460009081906001600160a01b0390811690851603611ec05750600b54611ee4565b6014546001600160a01b0390811690861603611edf5750600a54611ee4565b50600c545b6064611ef082856123c3565b611efa91906123da565b95945050505050565b6001600160a01b038316611f2e578060026000828254611f2391906123b0565b90915550611fa09050565b6001600160a01b03831660009081526020819052604090205481811015611f815760405163391434e360e21b81526001600160a01b03851660048201526024810182905260448101839052606401610a5e565b6001600160a01b03841660009081526020819052604090209082900390555b6001600160a01b038216611fbc57600280548290039055611fdb565b6001600160a01b03821660009081526020819052604090208054820190555b816001600160a01b0316836001600160a01b03167fddf252ad1be2c89b69c2b068fc378daa952ba7f163c4a11628f55a4df523b3ef8360405161202091815260200190565b60405180910390a3505050565b6000815180845260005b8181101561205357602081850181015186830182015201612037565b506000602082860101526020601f19601f83011685010191505092915050565b602081526000612086602083018461202d565b9392505050565b80356001600160a01b03811681146120a457600080fd5b919050565b600080604083850312156120bc57600080fd5b6120c58361208d565b946020939093013593505050565b8015158114610bfc57600080fd5b600080604083850312156120f457600080fd5b6120fd8361208d565b9150602083013561210d816120d3565b809150509250929050565b60008060006060848603121561212d57600080fd5b6121368461208d565b92506121446020850161208d565b9150604084013590509250925092565b60006020828403121561216657600080fd5b5035919050565b60006020828403121561217f57600080fd5b6120868261208d565b634e487b7160e01b600052604160045260246000fd5b600080604083850312156121b157600080fd5b823567ffffffffffffffff808211156121c957600080fd5b818501915085601f8301126121dd57600080fd5b8135818111156121ef576121ef612188565b604051601f8201601f19908116603f0116810190838211818310171561221757612217612188565b8160405282815288602084870101111561223057600080fd5b8260208601602083013760006020848301015280965050505050506122576020840161208d565b90509250929050565b6000806040838503121561227357600080fd5b82356120c5816120d3565b6000806040838503121561229157600080fd5b61229a8361208d565b91506122576020840161208d565b6000806000606084860312156122bd57600080fd5b505081359360208301359350604090920135919050565b600080600080608085870312156122ea57600080fd5b5050823594602084013594506040840135936060013592509050565b600181811c9082168061231a57607f821691505b60208210810361233a57634e487b7160e01b600052602260045260246000fd5b50919050565b634e487b7160e01b600052601160045260246000fd5b818103818111156109fe576109fe612340565b60408152600061237c604083018561202d565b905060018060a01b03831660208301529392505050565b6000602082840312156123a557600080fd5b8151612086816120d3565b808201808211156109fe576109fe612340565b80820281158282048414176109fe576109fe612340565b6000826123f757634e487b7160e01b600052601260045260246000fd5b50049056fea26469706673582212201965e3289bf0a3ae41a2896c2e813330ae5a2fb5ee2e1bb4a024effa13435faa64736f6c63430008140033",
  "linkReferences": {},
  "deployedLinkReferences": {}
}