{
  "_format": "hh-sol-artifact-1",
  "contractName": "StandardPRC20",
  "sourceName": "contracts/StandardPRC20.sol",
  "abi": [
    {
      "inputs": [
        {
          "internalType": "string",
          "name": "name",
          "type": "string"
        },
        {
          "internalType": "string",
          "name": "symbol",
          "type": "string"
        },
        {
          "internalType": "uint256",
          "name": "totalSupply",
          "type": "uint256"
        },
        {
          "internalType": "address",
          "name": "owner",
          "type": "address"
        },
        {
          "internalType": "uint256",
          "name": "_maxTransactionAmount",
          "type": "uint256"
        },
        {
          "internalType": "uint256",
          "name": "_maxWalletAmount",
          "type": "uint256"
        }
      ],
      "stateMutability": "nonpayable",
      "type": "constructor"
    },
    {
      "inputs": [
        {
          "internalType": "address",
          "name": "spender",
          "type": "address"
        },
        {
          "internalType": "uint256",
          "name": "allowance",
          "type": "uint256"
        },
        {
          "internalType": "uint256",
          "name": "needed",
          "type": "uint256"
        }
      ],
      "name": "ERC20InsufficientAllowance",
      "type": "error"
    },
    {
      "inputs": [
        {
          "internalType": "address",
          "name": "sender",
          "type": "address"
        },
        {
          "internalType": "uint256",
          "name": "balance",
          "type": "uint256"
        },
        {
          "internalType": "uint256",
          "name": "needed",
          "type": "uint256"
        }
      ],
      "name": "ERC20InsufficientBalance",
      "type": "error"
    },
    {
      "inputs": [
        {
          "internalType": "address",
          "name": "approver",
          "type": "address"
        }
      ],
      "name": "ERC20InvalidApprover",
      "type": "error"
    },
    {
      "inputs": [
        {
          "internalType": "address",
          "name": "receiver",
          "type": "address"
        }
      ],
      "name": "ERC20InvalidReceiver",
      "type": "error"
    },
    {
      "inputs": [
        {
          "internalType": "address",
          "name": "sender",
          "type": "address"
        }
      ],
      "name": "ERC20InvalidSender",
      "type": "error"
    },
    {
      "inputs": [
        {
          "internalType": "address",
          "name": "spender",
          "type": "address"
        }
      ],
      "name": "ERC20InvalidSpender",
      "type": "error"
    },
    {
      "inputs": [
        {
          "internalType": "address",
          "name": "owner",
          "type": "address"
        }
      ],
      "name": "OwnableInvalidOwner",
      "type": "error"
    },
    {
      "inputs": [
        {
          "internalType": "address",
          "name": "account",
          "type": "address"
        }
      ],
      "name": "OwnableUnauthorizedAccount",
      "type": "error"
    },
    {
      "inputs": [],
      "name": "ReentrancyGuardReentrantCall",
      "type": "error"
    },
    {
      "anonymous": false,
      "inputs": [
        {
          "indexed": true,
          "internalType": "address",
          "name": "owner",
          "type": "address"
        },
        {
          "indexed": true,
          "internalType": "address",
          "name": "spender",
          "type": "address"
        },
        {
          "indexed": false,
          "internalType": "uint256",
          "name": "value",
          "type": "uint256"
        }
      ],
      "name": "Approval",
      "type": "event"
    },
    {
      "anonymous": false,
      "inputs": [
        {
          "indexed": true,
          "internalType": "address",
          "name": "account",
          "type": "address"
        },
        {
          "indexed": false,
          "internalType": "bool",
          "name": "excluded",
          "type": "bool"
        }
      ],
      "name": "ExcludedFromTransferLimits",
      "type": "event"
    },
    {
      "anonymous": false,
      "inputs": [
        {
          "indexed": false,
          "internalType": "uint256",
          "name": "newAmount",
          "type": "uint256"
        }
      ],
      "name": "MaxTransactionAmountUpdated",
      "type": "event"
    },
    {
      "anonymous": false,
      "inputs": [
        {
          "indexed": false,
          "internalType": "uint256",
          "name": "newAmount",
          "type": "uint256"
        }
      ],
      "name": "MaxWalletAmountUpdated",
      "type": "event"
    },
    {
      "anonymous": false,
      "inputs": [],
      "name": "MintingFinished",
      "type": "event"
    },
    {
      "anonymous": false,
      "inputs": [
        {
          "indexed": true,
          "internalType": "address",
          "name": "previousOwner",
          "type": "address"
        },
        {
          "indexed": true,
          "internalType": "address",
          "name": "newOwner",
          "type": "address"
        }
      ],
      "name": "OwnershipTransferred",
      "type": "event"
    },
    {
      "anonymous": false,
      "inputs": [],
      "name": "TradingEnabled",
      "type": "event"
    },
    {
      "anonymous": false,
      "inputs": [
        {
          "indexed": true,
          "internalType": "address",
          "name": "from",
          "type": "address"
        },
        {
          "indexed": true,
          "internalType": "address",
          "name": "to",
          "type": "address"
        },
        {
          "indexed": false,
          "internalType": "uint256",
          "name": "value",
          "type": "uint256"
        }
      ],
      "name": "Transfer",
      "type": "event"
    },
    {
      "inputs": [
        {
          "internalType": "address",
          "name": "owner",
          "type": "address"
        },
        {
          "internalType": "address",
          "name": "spender",
          "type": "address"
        }
      ],
      "name": "allowance",
      "outputs": [
        {
          "internalType": "uint256",
          "name": "",
          "type": "uint256"
        }
      ],
      "stateMutability": "view",
      "type": "function"
    },
    {
      "inputs": [
        {
          "internalType": "address",
          "name": "spender",
          "type": "address"
        },
        {
          "internalType": "uint256",
          "name": "value",
          "type": "uint256"
        }
      ],
      "name": "approve",
      "outputs": [
        {
          "internalType": "bool",
          "name": "",
          "type": "bool"
        }
      ],
      "stateMutability": "nonpayable",
      "type": "function"
    },
    {
      "inputs": [
        {
          "internalType": "address",
          "name": "account",
          "type": "address"
        }
      ],
      "name": "balanceOf",
      "outputs": [
        {
          "internalType": "uint256",
          "name": "",
          "type": "uint256"
        }
      ],
      "stateMutability": "view",
      "type": "function"
    },
    {
      "inputs": [],
      "name": "decimals",
      "outputs": [
        {
          "internalType": "uint8",
          "name": "",
          "type": "uint8"
        }
      ],
      "stateMutability": "view",
      "type": "function"
    },
    {
      "inputs": [
        {
          "internalType": "address",
          "name": "token",
          "type": "address"
        },
        {
          "internalType": "uint256",
          "name": "amount",
          "type": "uint256"
        }
      ],
      "name": "emergencyWithdraw",
      "outputs": [],
      "stateMutability": "nonpayable",
      "type": "function"
    },
    {
      "inputs": [],
      "name": "enableTrading",
      "outputs": [],
      "stateMutability": "nonpayable",
      "type": "function"
    },
    {
      "inputs": [
        {
          "internalType": "address",
          "name": "account",
          "type": "address"
        },
        {
          "internalType": "bool",
          "name": "excluded",
          "type": "bool"
        }
      ],
      "name": "excludeFromTransferLimits",
      "outputs": [],
      "stateMutability": "nonpayable",
      "type": "function"
    },
    {
      "inputs": [],
      "name": "finishMinting",
      "outputs": [],
      "stateMutability": "nonpayable",
      "type": "function"
    },
    {
      "inputs": [
        {
          "internalType": "address",
          "name": "",
          "type": "address"
        }
      ],
      "name": "isExcludedFromTransferLimits",
      "outputs": [
        {
          "internalType": "bool",
          "name": "",
          "type": "bool"
        }
      ],
      "stateMutability": "view",
      "type": "function"
    },
    {
      "inputs": [],
      "name": "maxTransactionAmount",
      "outputs": [
        {
          "internalType": "uint256",
          "name": "",
          "type": "uint256"
        }
      ],
      "stateMutability": "view",
      "type": "function"
    },
    {
      "inputs": [],
      "name": "maxWalletAmount",
      "outputs": [
        {
          "internalType": "uint256",
          "name": "",
          "type": "uint256"
        }
      ],
      "stateMutability": "view",
      "type": "function"
    },
    {
      "inputs": [
        {
          "internalType": "address",
          "name": "to",
          "type": "address"
        },
        {
          "internalType": "uint256",
          "name": "amount",
          "type": "uint256"
        }
      ],
      "name": "mint",
      "outputs": [],
      "stateMutability": "nonpayable",
      "type": "function"
    },
    {
      "inputs": [],
      "name": "mintingFinished",
      "outputs": [
        {
          "internalType": "bool",
          "name": "",
          "type": "bool"
        }
      ],
      "stateMutability": "view",
      "type": "function"
    },
    {
      "inputs": [],
      "name": "name",
      "outputs": [
        {
          "internalType": "string",
          "name": "",
          "type": "string"
        }
      ],
      "stateMutability": "view",
      "type": "function"
    },
    {
      "inputs": [],
      "name": "owner",
      "outputs": [
        {
          "internalType": "address",
          "name": "",
          "type": "address"
        }
      ],
      "stateMutability": "view",
      "type": "function"
    },
    {
      "inputs": [],
      "name": "renounceOwnership",
      "outputs": [],
      "stateMutability": "nonpayable",
      "type": "function"
    },
    {
      "inputs": [
        {
          "internalType": "uint256",
          "name": "_maxTransactionAmount",
          "type": "uint256"
        }
      ],
      "name": "setMaxTransactionAmount",
      "outputs": [],
      "stateMutability": "nonpayable",
      "type": "function"
    },
    {
      "inputs": [
        {
          "internalType": "uint256",
          "name": "_maxWalletAmount",
          "type": "uint256"
        }
      ],
      "name": "setMaxWalletAmount",
      "outputs": [],
      "stateMutability": "nonpayable",
      "type": "function"
    },
    {
      "inputs": [],
      "name": "symbol",
      "outputs": [
        {
          "internalType": "string",
          "name": "",
          "type": "string"
        }
      ],
      "stateMutability": "view",
      "type": "function"
    },
    {
      "inputs": [],
      "name": "totalSupply",
      "outputs": [
        {
          "internalType": "uint256",
          "name": "",
          "type": "uint256"
        }
      ],
      "stateMutability": "view",
      "type": "function"
    },
    {
      "inputs": [],
      "name": "tradingEnabled",
      "outputs": [
        {
          "internalType": "bool",
          "name": "",
          "type": "bool"
        }
      ],
      "stateMutability": "view",
      "type": "function"
    },
    {
      "inputs": [
        {
          "internalType": "address",
          "name": "to",
          "type": "address"
        },
        {
          "internalType": "uint256",
          "name": "value",
          "type": "uint256"
        }
      ],
      "name": "transfer",
      "outputs": [
        {
          "internalType": "bool",
          "name": "",
          "type": "bool"
        }
      ],
      "stateMutability": "nonpayable",
      "type": "function"
    },
    {
      "inputs": [
        {
          "internalType": "address",
          "name": "from",
          "type": "address"
        },
        {
          "internalType": "address",
          "name": "to",
          "type": "address"
        },
        {
          "internalType": "uint256",
          "name": "value",
          "type": "uint256"
        }
      ],
      "name": "transferFrom",
      "outputs": [
        {
          "internalType": "bool",
          "name": "",
          "type": "bool"
        }
      ],
      "stateMutability": "nonpayable",
      "type": "function"
    },
    {
      "inputs": [
        {
          "internalType": "address",
          "name": "newOwner",
          "type": "address"
        }
      ],
      "name": "transferOwnership",
      "outputs": [],
      "stateMutability": "nonpayable",
      "type": "function"
    },
    {
      "stateMutability": "payable",
      "type": "receive"
    }
  ],
  "bytecode": "0x60806040523480156200001157600080fd5b5060405162001bce38038062001bce8339810160408190526200003491620006a9565b8286866003620000458382620007e0565b506004620000548282620007e0565b5050506001600160a01b0381166200008757604051631e4fbdf760e01b8152600060048201526024015b60405180910390fd5b6200009281620001eb565b50600160065583620000f35760405162461bcd60e51b815260206004820152602360248201527f546f74616c20737570706c79206d75737420626520677265617465722074686160448201526206e20360ec1b60648201526084016200007e565b6001600160a01b0383166200014b5760405162461bcd60e51b815260206004820152601c60248201527f4f776e65722063616e6e6f74206265207a65726f20616464726573730000000060448201526064016200007e565b6200015783856200023d565b6009829055600a8190556001600160a01b03831660008181526008602090815260408083208054600160ff19918216811790925530855293829020805490941681179093555191825260008051602062001bae833981519152910160405180910390a260405160018152309060008051602062001bae8339815191529060200160405180910390a2505050505050620008d4565b600580546001600160a01b038381166001600160a01b0319831681179093556040519116919082907f8be0079c531659141344cd1fd0a4f28419497f9722a3daafe3b4186f6b6457e090600090a35050565b6001600160a01b038216620002695760405163ec442f0560e01b8152600060048201526024016200007e565b62000277600083836200027b565b5050565b6001600160a01b038316158015906200029c57506001600160a01b03821615155b156200031a5760075460ff1680620002cc57506001600160a01b03831660009081526008602052604090205460ff165b6200031a5760405162461bcd60e51b815260206004820152601360248201527f54726164696e67206e6f7420656e61626c65640000000000000000000000000060448201526064016200007e565b6001600160a01b038316158015906200033b57506001600160a01b03821615155b80156200036157506001600160a01b03831660009081526008602052604090205460ff16155b80156200038757506001600160a01b03821660009081526008602052604090205460ff16155b156200049f5760095415620003ea57600954811115620003ea5760405162461bcd60e51b815260206004820152601f60248201527f5472616e7366657220616d6f756e742065786365656473206d6178696d756d0060448201526064016200007e565b6000600a541180156200040557506001600160a01b03821615155b156200049f57600a54816200042f846001600160a01b031660009081526020819052604090205490565b6200043b9190620008ac565b11156200049f5760405162461bcd60e51b815260206004820152602b60248201527f5472616e7366657220776f756c6420657863656564206d6178696d756d20776160448201526a1b1b195d08185b5bdd5b9d60aa1b60648201526084016200007e565b620004ac838383620004b1565b505050565b6001600160a01b038316620004e0578060026000828254620004d49190620008ac565b90915550620005549050565b6001600160a01b03831660009081526020819052604090205481811015620005355760405163391434e360e21b81526001600160a01b038516600482015260248101829052604481018390526064016200007e565b6001600160a01b03841660009081526020819052604090209082900390555b6001600160a01b038216620005725760028054829003905562000591565b6001600160a01b03821660009081526020819052604090208054820190555b816001600160a01b0316836001600160a01b03167fddf252ad1be2c89b69c2b068fc378daa952ba7f163c4a11628f55a4df523b3ef83604051620005d791815260200190565b60405180910390a3505050565b634e487b7160e01b600052604160045260246000fd5b600082601f8301126200060c57600080fd5b81516001600160401b0380821115620006295762000629620005e4565b604051601f8301601f19908116603f01168101908282118183101715620006545762000654620005e4565b816040528381526020925086838588010111156200067157600080fd5b600091505b8382101562000695578582018301518183018401529082019062000676565b600093810190920192909252949350505050565b60008060008060008060c08789031215620006c357600080fd5b86516001600160401b0380821115620006db57600080fd5b620006e98a838b01620005fa565b975060208901519150808211156200070057600080fd5b506200070f89828a01620005fa565b604089015160608a0151919750955090506001600160a01b03811681146200073657600080fd5b809350506080870151915060a087015190509295509295509295565b600181811c908216806200076757607f821691505b6020821081036200078857634e487b7160e01b600052602260045260246000fd5b50919050565b601f821115620004ac57600081815260208120601f850160051c81016020861015620007b75750805b601f850160051c820191505b81811015620007d857828155600101620007c3565b505050505050565b81516001600160401b03811115620007fc57620007fc620005e4565b62000814816200080d845462000752565b846200078e565b602080601f8311600181146200084c5760008415620008335750858301515b600019600386901b1c1916600185901b178555620007d8565b600085815260208120601f198616915b828110156200087d578886015182559484019460019091019084016200085c565b50858210156200089c5787850151600019600388901b60f8161c191681555b5050505050600190811b01905550565b80820180821115620008ce57634e487b7160e01b600052601160045260246000fd5b92915050565b6112ca80620008e46000396000f3fe60806040526004361061014f5760003560e01c8063715018a6116100b657806395d89b411161006f57806395d89b41146103b5578063a9059cbb146103ca578063aa4bde28146103ea578063c8c8ebe414610400578063dd62ed3e14610416578063f2fde38b1461045c57600080fd5b8063715018a6146102fe5780637d64bcb4146103135780638912168b146103285780638a8c523c146103585780638da5cb5b1461036d57806395ccea671461039557600080fd5b806327a14fc21161010857806327a14fc214610232578063313ce5671461025257806340c10f191461026e5780634ada218b1461028e5780635d0bef4a146102a857806370a08231146102c857600080fd5b806305d2035b1461015b57806306fdde031461018f578063095ea7b3146101b157806318160ddd146101d15780631e293c10146101f057806323b872dd1461021257600080fd5b3661015657005b600080fd5b34801561016757600080fd5b5060075461017a90610100900460ff1681565b60405190151581526020015b60405180910390f35b34801561019b57600080fd5b506101a461047c565b6040516101869190611099565b3480156101bd57600080fd5b5061017a6101cc366004611103565b61050e565b3480156101dd57600080fd5b506002545b604051908152602001610186565b3480156101fc57600080fd5b5061021061020b36600461112d565b610528565b005b34801561021e57600080fd5b5061017a61022d366004611146565b6105d7565b34801561023e57600080fd5b5061021061024d36600461112d565b6105fb565b34801561025e57600080fd5b5060405160128152602001610186565b34801561027a57600080fd5b50610210610289366004611103565b610699565b34801561029a57600080fd5b5060075461017a9060ff1681565b3480156102b457600080fd5b506102106102c3366004611190565b6107ad565b3480156102d457600080fd5b506101e26102e33660046111c7565b6001600160a01b031660009081526020819052604090205490565b34801561030a57600080fd5b5061021061086a565b34801561031f57600080fd5b5061021061087e565b34801561033457600080fd5b5061017a6103433660046111c7565b60086020526000908152604090205460ff1681565b34801561036457600080fd5b50610210610918565b34801561037957600080fd5b506005546040516001600160a01b039091168152602001610186565b3480156103a157600080fd5b506102106103b0366004611103565b6109ab565b3480156103c157600080fd5b506101a4610a92565b3480156103d657600080fd5b5061017a6103e5366004611103565b610aa1565b3480156103f657600080fd5b506101e2600a5481565b34801561040c57600080fd5b506101e260095481565b34801561042257600080fd5b506101e26104313660046111e9565b6001600160a01b03918216600090815260016020908152604080832093909416825291909152205490565b34801561046857600080fd5b506102106104773660046111c7565b610aaf565b60606003805461048b9061121c565b80601f01602080910402602001604051908101604052809291908181526020018280546104b79061121c565b80156105045780601f106104d957610100808354040283529160200191610504565b820191906000526020600020905b8154815290600101906020018083116104e757829003601f168201915b5050505050905090565b60003361051c818585610aed565b60019150505b92915050565b610530610afa565b6000811161059b5760405162461bcd60e51b815260206004820152602d60248201527f4d6178207472616e73616374696f6e20616d6f756e74206d757374206265206760448201526c0726561746572207468616e203609c1b60648201526084015b60405180910390fd5b60098190556040518181527f7c1cb3702d8e1fa6d24b12dd90670ab69c6d66d58233103d37da8b07d6b850ac906020015b60405180910390a150565b6000336105e5858285610b27565b6105f0858585610ba6565b506001949350505050565b610603610afa565b600081116106645760405162461bcd60e51b815260206004820152602860248201527f4d61782077616c6c657420616d6f756e74206d75737420626520677265617465604482015267072207468616e20360c41b6064820152608401610592565b600a8190556040518181527f4b39c36d20c57d220f61fd25c4349d4435cc03ef6c2a680942f15333c3c3e001906020016105cc565b6106a1610afa565b600754610100900460ff16156106f95760405162461bcd60e51b815260206004820152601960248201527f4d696e74696e6720686173206265656e2066696e6973686564000000000000006044820152606401610592565b6001600160a01b03821661074f5760405162461bcd60e51b815260206004820152601b60248201527f43616e6e6f74206d696e7420746f207a65726f206164647265737300000000006044820152606401610592565b6000811161079f5760405162461bcd60e51b815260206004820152601d60248201527f416d6f756e74206d7573742062652067726561746572207468616e20300000006044820152606401610592565b6107a98282610c05565b5050565b6107b5610afa565b6001600160a01b03821661080b5760405162461bcd60e51b815260206004820152601b60248201527f43616e6e6f74206578636c756465207a65726f206164647265737300000000006044820152606401610592565b6001600160a01b038216600081815260086020908152604091829020805460ff191685151590811790915591519182527fe54379b201c314884c10d957a1389f1ba0ddae19a72fa23b15e259ea97aa2e51910160405180910390a25050565b610872610afa565b61087c6000610c3b565b565b610886610afa565b600754610100900460ff16156108de5760405162461bcd60e51b815260206004820152601860248201527f4d696e74696e6720616c72656164792066696e697368656400000000000000006044820152606401610592565b6007805461ff0019166101001790556040517fb828d9b5c78095deeeeff2eca2e5d4fe046ce3feb4c99702624a3fd384ad2dbc90600090a1565b610920610afa565b60075460ff16156109735760405162461bcd60e51b815260206004820152601760248201527f54726164696e6720616c726561647920656e61626c65640000000000000000006044820152606401610592565b6007805460ff191660011790556040517f799663458a5ef2936f7fa0c99b3336c69c25890f82974f04e811e5bb359186c790600090a1565b6109b3610afa565b6001600160a01b038216610a00576005546040516001600160a01b039091169082156108fc029083906000818181858888f193505050501580156109fb573d6000803e3d6000fd5b505050565b816001600160a01b031663a9059cbb610a216005546001600160a01b031690565b6040516001600160e01b031960e084901b1681526001600160a01b039091166004820152602481018490526044016020604051808303816000875af1158015610a6e573d6000803e3d6000fd5b505050506040513d601f19601f820116820180604052508101906109fb9190611256565b60606004805461048b9061121c565b60003361051c818585610ba6565b610ab7610afa565b6001600160a01b038116610ae157604051631e4fbdf760e01b815260006004820152602401610592565b610aea81610c3b565b50565b6109fb8383836001610c8d565b6005546001600160a01b0316331461087c5760405163118cdaa760e01b8152336004820152602401610592565b6001600160a01b03838116600090815260016020908152604080832093861683529290522054600019811015610ba05781811015610b9157604051637dc7a0d960e11b81526001600160a01b03841660048201526024810182905260448101839052606401610592565b610ba084848484036000610c8d565b50505050565b6001600160a01b038316610bd057604051634b637e8f60e11b815260006004820152602401610592565b6001600160a01b038216610bfa5760405163ec442f0560e01b815260006004820152602401610592565b6109fb838383610d62565b6001600160a01b038216610c2f5760405163ec442f0560e01b815260006004820152602401610592565b6107a960008383610d62565b600580546001600160a01b038381166001600160a01b0319831681179093556040519116919082907f8be0079c531659141344cd1fd0a4f28419497f9722a3daafe3b4186f6b6457e090600090a35050565b6001600160a01b038416610cb75760405163e602df0560e01b815260006004820152602401610592565b6001600160a01b038316610ce157604051634a1406b160e11b815260006004820152602401610592565b6001600160a01b0380851660009081526001602090815260408083209387168352929052208290558015610ba057826001600160a01b0316846001600160a01b03167f8c5be1e5ebec7d5bd14f71427d1e84f3dd0314c0f7b2291e5b200ac8c7c3b92584604051610d5491815260200190565b60405180910390a350505050565b6001600160a01b03831615801590610d8257506001600160a01b03821615155b15610df25760075460ff1680610db057506001600160a01b03831660009081526008602052604090205460ff165b610df25760405162461bcd60e51b8152602060048201526013602482015272151c98591a5b99c81b9bdd08195b98589b1959606a1b6044820152606401610592565b6001600160a01b03831615801590610e1257506001600160a01b03821615155b8015610e3757506001600160a01b03831660009081526008602052604090205460ff16155b8015610e5c57506001600160a01b03821660009081526008602052604090205460ff16155b15610f695760095415610ebb57600954811115610ebb5760405162461bcd60e51b815260206004820152601f60248201527f5472616e7366657220616d6f756e742065786365656473206d6178696d756d006044820152606401610592565b6000600a54118015610ed557506001600160a01b03821615155b15610f6957600a5481610efd846001600160a01b031660009081526020819052604090205490565b610f079190611273565b1115610f695760405162461bcd60e51b815260206004820152602b60248201527f5472616e7366657220776f756c6420657863656564206d6178696d756d20776160448201526a1b1b195d08185b5bdd5b9d60aa1b6064820152608401610592565b6109fb8383836001600160a01b038316610f9a578060026000828254610f8f9190611273565b9091555061100c9050565b6001600160a01b03831660009081526020819052604090205481811015610fed5760405163391434e360e21b81526001600160a01b03851660048201526024810182905260448101839052606401610592565b6001600160a01b03841660009081526020819052604090209082900390555b6001600160a01b03821661102857600280548290039055611047565b6001600160a01b03821660009081526020819052604090208054820190555b816001600160a01b0316836001600160a01b03167fddf252ad1be2c89b69c2b068fc378daa952ba7f163c4a11628f55a4df523b3ef8360405161108c91815260200190565b60405180910390a3505050565b600060208083528351808285015260005b818110156110c6578581018301518582016040015282016110aa565b506000604082860101526040601f19601f8301168501019250505092915050565b80356001600160a01b03811681146110fe57600080fd5b919050565b6000806040838503121561111657600080fd5b61111f836110e7565b946020939093013593505050565b60006020828403121561113f57600080fd5b5035919050565b60008060006060848603121561115b57600080fd5b611164846110e7565b9250611172602085016110e7565b9150604084013590509250925092565b8015158114610aea57600080fd5b600080604083850312156111a357600080fd5b6111ac836110e7565b915060208301356111bc81611182565b809150509250929050565b6000602082840312156111d957600080fd5b6111e2826110e7565b9392505050565b600080604083850312156111fc57600080fd5b611205836110e7565b9150611213602084016110e7565b90509250929050565b600181811c9082168061123057607f821691505b60208210810361125057634e487b7160e01b600052602260045260246000fd5b50919050565b60006020828403121561126857600080fd5b81516111e281611182565b8082018082111561052257634e487b7160e01b600052601160045260246000fdfea264697066735822122068e4d5e91c47cd44f3725a7c4edde24ac266194d101aaddedbb966fad79b6c7d64736f6c63430008140033e54379b201c314884c10d957a1389f1ba0ddae19a72fa23b15e259ea97aa2e51",
  "linkReferences": {},
  "deployedLinkReferences": {}
}